:0C0000000C9463000C94D5000C94FC00E0
:10000C000C940D010C9400000C9400000C94000056
:10001C000C9400000C9400000C9400000C94000054
:10002C000C9400000C9400000C9400000C94000044
:10003C000C9400000C9400000C9400000C94000034
:10004C000C947E040C9400001027E80364000A0052
:10005C000100001000011000010000000C013A002A
:10006C0000000600253032643A253032643A2530DF
:10007C003264006379636C652074696D653A202580
:10008C006400616D6972310070726F6A656374002F
:10009C0074657374206C69676874730080C00700A2
:1000AC0001000200660007000400680002006702FD
:1000BC00A80001006202AA000000F894EE27ECBB35
:1000CC00F1E0F5BFE5BF8DE0A2E0BB27ED938A958B
:1000DC00E9F780E098E0A0E6ED930197E9F7ECEA08
:1000EC00F0E085919591009761F0A591B5910590FF
:1000FC001590BF01F00105900D920197E1F7FB01FE
:10010C00F0CFEFE5EDBFE8E0EEBFC0E6D2E00C9437
:10011C001E0164970E941306A0916402BA1671F135
:10012C00E0E0EA93A0E00E941F06E0E7F0E0FA931B
:10013C00EA93E92D0E942506E82D0E942506EB2D59
:10014C000E9425068CE00E944A046096DE010E9403
:10015C008502E0E0EA93A1E00E941F06EFE7F0E0E1
:10016C00FA93EA93EA2D0E94250684E00E944A0441
:10017C002896DE010E948502B0926402A4E1B0E0F0
:10018C000E94CB060C944804AA93E881E03011F449
:10019C00E0E002C0EBB7E06EEBBF0C94D4020A9225
:1001AC001A92FA926A937A938A939A93AA93BA932D
:1001BC00EA93FA93EFB7EA93F894E92DEF5F4E2E9A
:1001CC00E8E1E41509F44424E1E0CE2EA0E0DCDF04
:1001DC00E991EFBFF991E991B991A991999189911F
:1001EC0079916991F990199009901895EA93EFB764
:1001FC00EA93E82DEF5F7E2EECE3E71509F4772404
:10020C00E1E0E0936302E991EFBFE9911895AA93BD
:10021C00EA93EFB7EA93A0916602A13021F4E8B318
:10022C00A2E0EA27E8BBE991EFBFE991A991189503
:10023C00E0E0EABBEBBBE3E0E7BBE4E0E8BBE0E01B
:10024C00E4BBE5BBE1BBECE0E2BBE0E0E3BFE2BF5B
:10025C00ECBFEFBDEEBDEDBDECBDE7BDE6BDEBBD4E
:10026C00EABDE9BDE8BDE2BDE5BDE4BDE3BDE9BF66
:10027C00EBB7E06EEBBFEAE0E5BFE0E0E4BFE0EE39
:10028C00EABFE0E0EAB9E0E8E8B9E0E0E0BFE6B9EF
:10029C00EDB9E6BF0E947A06E0E0EA93EA93A0E0AB
:1002AC007AD078940E947A06A0E14BD1AEE8B0E007
:1002BC0035D1E0E0EA93A1E0E3D0A4E9B0E02ED19F
:1002CC000E942B06ACE9B0E029D1C09A0E942B0603
:1002DC00C098C198E1E0EA93EA93A1E05CD04A921D
:1002EC007A92A62D94D0E1E0EC1531F0A091630246
:1002FC00A13011F0ED15F9F4E1E0EC1551F4CC243A
:10030C000E9413064A928A92AB2D81D0A1E03CDF69
:10031C0012C0A0916302A13051F4E0E0E0936302BB
:10032C000E9413069A927A92AB2D71D004C0E1E030
:10033C00ED1509F4DD24EDDEEDE0E41519F4E1E052
:10034C00E51509F00AC0E1E0E0936602EA2DE40D40
:10035C00E09365025524C09A1CC0E0916502E91532
:10036C0011F4552009F015C0A0916602E1E0EA27CE
:10037C00E0936602EA2DE90DE0936502A091650217
:10038C00A83138F0B0E0E8E1F0E00E94F006E0932C
:10039C006502A9CFFFCFAA93EA81E370EA83E981D2
:1003AC00E03019F0EA81E061EA83E881E03019F08D
:1003BC00EA81E068EA830E943106A7E00E94B30656
:1003CC00AA810E943606BBC0BA93AA930E9431063A
:1003DC00A0E00E9436060E947F06A1ED0E94B306A3
:1003EC000E943A06A881B981EC930E943A06AA8130
:1003FC00BB81EC93A0E00E949806AE2F0E94E3050F
:10040C00AC81BD81EC930E948E0626960895AA932A
:10041C000E943106A0E00E94B306A8810E94F0055C
:10042C00AE2F0E94B306A9810E94F005AE2F0E9448
:10043C00B306AA810E94F005AE2F0E9436067FC03B
:10044C00AA93EBB3EF70AE2FE881E07FEA2BEBBB06
:10045C008DE08A95F1F7DA9A8DE08A95F1F7DA98C2
:10046C008DE08A95F1F79AC0AA93A881E9DFE8811B
:10047C00E295E883A881E4DF85E88A95F1F78EC0E0
:10048C00AA93E881F0E0E959FD4FE081A981AE0F14
:10049C00EBDFE981E0936B02E881E0936C0222963A
:1004AC000895A2E00E944006ACE0DEDFA1E00E94CD
:1004BC004006E0E0E0936C02E0936B020895AA938F
:1004CC00A881AA3031F0E0916D02A0916B02AE17B9
:1004DC0060F0E0E0EA93A0916C02AF5FA0936C0235
:1004EC00CFDFA881AA3009F459C0E0916B02EF5F0D
:1004FC00E0936B02D89AA881B7DFD8984FC0BA9313
:10050C00AA931A93A981BA81ED91A983BA831E2F5C
:10051C00E03019F0A12FD3DFF5CF10C0BA93AA9316
:10052C001A93E981FA813196E983FA833197E49140
:10053C001E2FE03019F0A12FC2DFF3CF18812396C4
:10054C000895AA93EAB3E06FEABBD29AD09AD19AF3
:10055C00DA98D898D998E881E0936D02E058E09346
:10056C006902E881E054E0936A02A4E1B0E00E94E1
:10057C00CB060E9446060E9446060E944606A0E252
:10058C005FDF88EC90E00197F1F7A8E26DDFA4E063
:10059C006BDFA5E869DFA6E067DF83DF21960895AE
:1005AC00BA93AA931A930A93AA81BB8112960E94BA
:1005BC000307309759F1AA81BB8114960E94030757
:1005CC008F01309761F00230E0E01E0798F0F801DF
:1005DC0031978F01AA81BB811496ED93FC93AA816C
:1005EC00BB811296ED91FD913196FE93EE9331976E
:1005FC00AC81A083AA81BB810E940307FF232AF050
:10060C00ED91FD913196FE93EE9306C0AA81BB81CC
:10061C00EFEFFFEFED93FC93198108812596089578
:10062C00BA93AA9326970E94100710E0AC85BD855B
:10063C00E0E0F0E0ED93FC93EA89FB893196EA8BDC
:10064C00FB8B3197E4912E2FE03009F415C1E12F8B
:10065C00E03039F4253211F411E002C00E944E064C
:10066C000AC1E130A9F4253219F40E944E0602C1E8
:10067C0012E040E000E02D3211F401E0FCC02B321E
:10068C0011F44BE2F8C0203211F440E2F4C002C085
:10069C00E23039F450E013E0203311F40068EBC081
:1006AC0003C0E33009F0E7C0203310F02A3308F020
:1006BC0007C0AAE05A9F502DE22FE0535E0FDBC01B
:1006CC00E22FE33649F40E945506E889F989A481A2
:1006DC00AA930E945B06CEC0E33741F40E945506F4
:1006EC000E9461060E94FA051E2F0AC0E03761F4D1
:1006FC000E9455060E9461060E9406061E2F086085
:10070C0002600F7730E034C0E43611F0E93611F4B2
:10071C00046002C0E53731F4E4E5F0E0EE83FF83DA
:10072C0015E00CC0E83511F4086003C0E83709F097
:10073C00A1C0EEE5F0E0EE83FF8314E002FF14C0ED
:10074C000E9455060E946B06AB85AA233AF4EA85F3
:10075C00FB850E94D906EA87FB874DE2403011F0F9
:10076C001F5F01C00B7F04C00E9455060E946B06E0
:10077C0000FD11C0151778F407FF08C002FF04C074
:10078C000B7F242F115001C020E301C020E20E94F6
:10079C004E065150EFCF312F01FF17C03030A1F072
:1007AC0003FF06C0EE81FF812591EE83FF8305C018
:1007BC00AE81BF812D91AE83BF830E944E06503017
:1007CC0009F051503150EACF4BC020E3EE81FF814C
:1007DC000E940707E887F987EE81FF813296EE8346
:1007EC00FF83E885F985AA85BB85AE17BF0750F056
:1007FC002F5FA885B985EA85FB85EA1BFB0BEA8789
:10080C00FB87EFCF2A3328F003FF02C0295F01C01A
:10081C00295D04FD1AC0213320F4A885B9851197F0
:10082C0009F409C0531710F000FF01C013C020E2F7
:10083C0007FF0BC020E3006102FF07C00B7F4A9348
:10084C000E945B06503009F051500E944E06503009
:10085C0009F051503150A885B985129708F0B5CFE1
:10086C0000FF08C0503031F05150E0E2EA930E9492
:10087C005B06F8CF10E0E0CEAC85BD850E94030787
:10088C000E94170764960895FF92F82E26970E94EF
:10089C0012070E947306309719F4EFEFFFEF23C095
:1008AC00DE0116960E94D5068D010E947306EE831A
:1008BC00FF83E0E0E887E987DE011A960E94D506FF
:1008CC000E940307FA93EA931A930A93E6EDF2E077
:1008DC00FA93EA93DE011A96A3DE9F01AE81BF81E3
:1008EC00E0E0EC93F9010E9419072A96FF90089515
:1008FC000A921A92FA926A937A938A939A93AA9387
:10090C00BA93EA93FA93EFB7EA930E941007109107
:10091C006102009160023091710220916202E12F1C
:10092C00A0917202B0917302F0E0EA0FFB1FAF01CD
:10093C00E1B1E87FE83011F420E002C0E03119F4B5
:10094C00E0916E0210C0E83111F0E83221F5031786
:10095C0080F4E02F0F5FA0916F02B0917002F0E075
:10096C00AE0FBF1FEC91E3B9E6B7EF70E068E6BFDE
:10097C0011C0E09174021E1760F4E0916E02E16008
:10098C00E0936E02E89420F8E6B7EF70E06AE6BFF9
:10099C00FBC033C0F9C0E03529F4E3B1DA01EC93C4
:1009AC001F5F02C0E03471F4E0917402E1501E1735
:1009BC0020F0E6B7EF70E06803C0E6B7EF70E06CCC
:1009CC00E6BFE2C0E83529F4E3B1DA01EC931F5F2E
:1009DC0002C0E03209F402C0E03309F402C0E8348A
:1009EC0069F4203051F420FE03C0031728F005C031
:1009FC00E09174021E1708F424E0C0C0E83329F417
:100A0C0022E0E6B7EF70E068BCC0E83611F0E837DA
:100A1C0011F422E005C0E03611F0E03791F420E04B
:100A2C0010E0E89420F8E0917502E03029F421E020
:100A3C00E6B7EF70E06803C0E6B7EF70E06CE6BFB6
:100A4C00A3C0E03811F0E03929F520FE02C021E006
:100A5C0095C0E3B1DA01EC931F5FE09175021E17AC
:100A6C00B0F4E0917602F0917702309711F426E021
:100A7C0085C0A0E0E0917602F09177020995E03014
:100A8C0029F0E6B7EF70E06CE6BF7EC002C0689458
:100A9C0020F802C0E83809F402C0E83929F4E6B7B6
:100AAC00EF70E068E6BF70C0E03AA9F4E6B7EF700B
:100ABC00E06CE6BF689421F8E0917602F091770241
:100ACC00309739F0A1E0E0917602F0917702099528
:100ADC0001C026E059C0E03B11F422E002C0E83A24
:100AEC00B9F4E0917802F0917902309759F0A0E0D6
:100AFC00E0917802F091790209953E2FE03011F0E7
:100B0C0020E002C026E03AC000E0E89420F802C0E1
:100B1C00E83BE1F420FE02C021E030C0E02F0F5F83
:100B2C00A0916F02B0917002F0E0AE0FBF1FEC917C
:100B3C00E3B9031720F4E6B7EF70E06C05C06894D6
:100B4C0020F8E6B7EF70E068E6BF1EC0E03C11F09D
:100B5C00E83C89F4E6B7EF70E06CE6BFE091780210
:100B6C00F0917902309731F0A1E0E0917802F091A8
:100B7C007902099507C0E03039F423E0E6B7EF704D
:100B8C00E06DE6BF689421F8109361020093600257
:100B9C0020936202309371020E9417072696E99106
:100BAC00EFBFF991E991B991A991999189917991B5
:100BBC006991F990199009901895AA93E881E2959A
:100BCC00EF70AE2FAA0FAA0FEA0FEE0FA991AF701C
:100BDC00EA0F0895AA93A991EE27AA5012F0E05FAC
:100BEC00FCCFA65FEA0F0895BA93AA93A991B99185
:100BFC00EE27FF276D91662311F03196FBCF0895F8
:100C0C00BA93AA93AA27BB27E991F99105900020E2
:100C1C0011F01196FBCFFD010895E9E0F0E0FA9395
:100C2C00EA93E8E0F0E0FA93EA93ABE0B0E00C94DE
:100C3C00EA010E944602FE01FA93EA930895FF2707
:100C4C00662777270E940B070895A8EEB3E00E9451
:100C5C00CB060C9457020E947F06A0ED0C94B306B1
:100C6C000E94B3060C948E06A1E00E949806AE2F4B
:100C7C000C94E3050E943A02A3E0B0E00C94CB067E
:100C8C00A0E30E94260288EC90E00197F1F708950A
:100C9C002A93AD85BE85EF85F88909950895E88975
:100CAC00F9893497E88BF98B0895AD85BE85EF856E
:100CBC00F88909950895A889B98914960E940307A3
:100CCC00EE83FF83AE81BF810895A889B9891496FC
:100CDC000E940307EA87FB870895DE011C960E9499
:100CEC00D5060E9403070895A898A998A09AA198E0
:100CFC0015C0A198A098EE270000999B0895989B89
:100D0C00089504D0A19A02D0A09AE1E06DE007C04A
:100D1C00A19AA09A03D0A098F9DFA1986BE16A95EB
:100D2C00F1F7089578E0A098F1DF989BFECFEEDF05
:100D3C00889499990894A09AF1DFEE1F7A9599F707
:100D4C007A2F772311F4A19801C0A19ADFDFA09824
:100D5C00E5DFA09ADBDFA198D9CF78E0AA0F10F4D9
:100D6C00A19801C0A19ADADFA098D0DF989BFECFA2
:100D7C00CDDFA09A7A9591F7A198C8DFA098CEDF25
:100D8C00E1E09999EE27A09AC1CF109639F080ED49
:100D9C0097E00197F1F7A8951197C9F708950024EA
:100DAC00AF0DB01D0895F195E195F0400895002424
:100DBC00112490E1AA0FBB1F001C111C0E1A1F0A54
:100DCC0018F40E0E1F1E01C0A1609A9599F7FD0133
:100DDC00D001089504D0EBDF0EF4E5DF0895E8941C
:100DEC00F7FF02C0E0DF6894B7FF06C0A095B0958E
:100DFC00119600F8039400FA0895ED91FC91119767
:100E0C0008950590F491E02D08957A936A93FA93DE
:100E1C00EA9308955A934A933A932A931A930A930E
:100E2C0008955D814C813B812A8119810881089547
:00000001FF
